{
  "_format": "hh-sol-artifact-1",
  "contractName": "PuffTip",
  "sourceName": "contracts/PuffTip.sol",
  "abi": [
    {
      "inputs": [],
      "stateMutability": "nonpayable",
      "type": "constructor"
    },
    {
      "inputs": [
        {
          "internalType": "address",
          "name": "owner",
          "type": "address"
        }
      ],
      "name": "OwnableInvalidOwner",
      "type": "error"
    },
    {
      "inputs": [
        {
          "internalType": "address",
          "name": "account",
          "type": "address"
        }
      ],
      "name": "OwnableUnauthorizedAccount",
      "type": "error"
    },
    {
      "inputs": [],
      "name": "ReentrancyGuardReentrantCall",
      "type": "error"
    },
    {
      "anonymous": false,
      "inputs": [
        {
          "indexed": true,
          "internalType": "address",
          "name": "owner",
          "type": "address"
        },
        {
          "indexed": false,
          "internalType": "uint256",
          "name": "amount",
          "type": "uint256"
        }
      ],
      "name": "FeesWithdrawn",
      "type": "event"
    },
    {
      "anonymous": false,
      "inputs": [
        {
          "indexed": true,
          "internalType": "address",
          "name": "previousOwner",
          "type": "address"
        },
        {
          "indexed": true,
          "internalType": "address",
          "name": "newOwner",
          "type": "address"
        }
      ],
      "name": "OwnershipTransferred",
      "type": "event"
    },
    {
      "anonymous": false,
      "inputs": [
        {
          "indexed": false,
          "internalType": "uint256",
          "name": "newFee",
          "type": "uint256"
        }
      ],
      "name": "ProfileUpdateFeeChanged",
      "type": "event"
    },
    {
      "anonymous": false,
      "inputs": [
        {
          "indexed": true,
          "internalType": "address",
          "name": "user",
          "type": "address"
        },
        {
          "indexed": false,
          "internalType": "string",
          "name": "newMetadataURI",
          "type": "string"
        }
      ],
      "name": "ProfileUpdated",
      "type": "event"
    },
    {
      "anonymous": false,
      "inputs": [
        {
          "indexed": true,
          "internalType": "address",
          "name": "tipper",
          "type": "address"
        },
        {
          "indexed": true,
          "internalType": "address",
          "name": "recipient",
          "type": "address"
        },
        {
          "indexed": false,
          "internalType": "uint256",
          "name": "amount",
          "type": "uint256"
        },
        {
          "indexed": false,
          "internalType": "string",
          "name": "message",
          "type": "string"
        },
        {
          "indexed": false,
          "internalType": "uint256",
          "name": "timestamp",
          "type": "uint256"
        }
      ],
      "name": "TipSent",
      "type": "event"
    },
    {
      "inputs": [],
      "name": "PLATFORM_FEE_BPS",
      "outputs": [
        {
          "internalType": "uint256",
          "name": "",
          "type": "uint256"
        }
      ],
      "stateMutability": "view",
      "type": "function"
    },
    {
      "inputs": [],
      "name": "owner",
      "outputs": [
        {
          "internalType": "address",
          "name": "",
          "type": "address"
        }
      ],
      "stateMutability": "view",
      "type": "function"
    },
    {
      "inputs": [],
      "name": "profileUpdateFee",
      "outputs": [
        {
          "internalType": "uint256",
          "name": "",
          "type": "uint256"
        }
      ],
      "stateMutability": "view",
      "type": "function"
    },
    {
      "inputs": [
        {
          "internalType": "address",
          "name": "",
          "type": "address"
        }
      ],
      "name": "profiles",
      "outputs": [
        {
          "internalType": "string",
          "name": "metadataURI",
          "type": "string"
        },
        {
          "internalType": "bool",
          "name": "exists",
          "type": "bool"
        }
      ],
      "stateMutability": "view",
      "type": "function"
    },
    {
      "inputs": [],
      "name": "renounceOwnership",
      "outputs": [],
      "stateMutability": "nonpayable",
      "type": "function"
    },
    {
      "inputs": [
        {
          "internalType": "uint256",
          "name": "_newFee",
          "type": "uint256"
        }
      ],
      "name": "setProfileUpdateFee",
      "outputs": [],
      "stateMutability": "nonpayable",
      "type": "function"
    },
    {
      "inputs": [
        {
          "internalType": "address",
          "name": "_recipient",
          "type": "address"
        },
        {
          "internalType": "string",
          "name": "_message",
          "type": "string"
        }
      ],
      "name": "tip",
      "outputs": [],
      "stateMutability": "payable",
      "type": "function"
    },
    {
      "inputs": [
        {
          "internalType": "address",
          "name": "newOwner",
          "type": "address"
        }
      ],
      "name": "transferOwnership",
      "outputs": [],
      "stateMutability": "nonpayable",
      "type": "function"
    },
    {
      "inputs": [
        {
          "internalType": "string",
          "name": "_metadataURI",
          "type": "string"
        }
      ],
      "name": "updateProfile",
      "outputs": [],
      "stateMutability": "payable",
      "type": "function"
    },
    {
      "inputs": [],
      "name": "withdrawFees",
      "outputs": [],
      "stateMutability": "nonpayable",
      "type": "function"
    }
  ],
  "bytecode": "0x608060405266038d7ea4c680006002553480156200001c57600080fd5b5033600073ffffffffffffffffffffffffffffffffffffffff168173ffffffffffffffffffffffffffffffffffffffff1603620000935760006040517f1e4fbdf70000000000000000000000000000000000000000000000000000000081526004016200008a9190620001bb565b60405180910390fd5b620000a481620000b260201b60201c565b5060018081905550620001d8565b60008060009054906101000a900473ffffffffffffffffffffffffffffffffffffffff169050816000806101000a81548173ffffffffffffffffffffffffffffffffffffffff021916908373ffffffffffffffffffffffffffffffffffffffff1602179055508173ffffffffffffffffffffffffffffffffffffffff168173ffffffffffffffffffffffffffffffffffffffff167f8be0079c531659141344cd1fd0a4f28419497f9722a3daafe3b4186f6b6457e060405160405180910390a35050565b600073ffffffffffffffffffffffffffffffffffffffff82169050919050565b6000620001a38262000176565b9050919050565b620001b58162000196565b82525050565b6000602082019050620001d26000830184620001aa565b92915050565b6115df80620001e86000396000f3fe6080604052600436106100905760003560e01c80638da5cb5b116100595780638da5cb5b14610133578063b15196111461015e578063b1edb5c21461017a578063bbe15627146101a5578063f2fde38b146101e357610090565b80629299e3146100955780631e2d7f00146100b1578063476343ee146100da578063539aa77f146100f1578063715018a61461011c575b600080fd5b6100af60048036038101906100aa9190610b13565b61020c565b005b3480156100bd57600080fd5b506100d860048036038101906100d39190610b96565b6103c7565b005b3480156100e657600080fd5b506100ef610410565b005b3480156100fd57600080fd5b5061010661056c565b6040516101139190610bd2565b60405180910390f35b34801561012857600080fd5b50610131610571565b005b34801561013f57600080fd5b50610148610585565b6040516101559190610c2e565b60405180910390f35b61017860048036038101906101739190610c75565b6105ae565b005b34801561018657600080fd5b5061018f6107bd565b60405161019c9190610bd2565b60405180910390f35b3480156101b157600080fd5b506101cc60048036038101906101c79190610cd5565b6107c3565b6040516101da929190610dad565b60405180910390f35b3480156101ef57600080fd5b5061020a60048036038101906102059190610cd5565b61087c565b005b600360003373ffffffffffffffffffffffffffffffffffffffff1673ffffffffffffffffffffffffffffffffffffffff16815260200190815260200160002060010160009054906101000a90505060025434101561029f576040517f08c379a000000000000000000000000000000000000000000000000000000000815260040161029690610e4f565b60405180910390fd5b604051806040016040528083838080601f016020809104026020016040519081016040528093929190818152602001838380828437600081840152601f19601f82011690508083019250505050505050815260200160011515815250600360003373ffffffffffffffffffffffffffffffffffffffff1673ffffffffffffffffffffffffffffffffffffffff168152602001908152602001600020600082015181600001908161034f91906110aa565b5060208201518160010160006101000a81548160ff0219169083151502179055509050503373ffffffffffffffffffffffffffffffffffffffff167fdd635a4cd84864e37e4479dbfc2ec667acfa473c83c8422a8ac9d9d07599b01c83836040516103bb9291906111b8565b60405180910390a25050565b6103cf610902565b806002819055507fc06ffe19ac9fbe9e04125faf0b8b66fdaf594e6f085c3b59ed563279c7b3602f816040516104059190610bd2565b60405180910390a150565b610418610902565b600047905060008111610460576040517f08c379a000000000000000000000000000000000000000000000000000000000815260040161045790611228565b60405180910390fd5b600061046a610585565b73ffffffffffffffffffffffffffffffffffffffff168260405161048d90611279565b60006040518083038185875af1925050503d80600081146104ca576040519150601f19603f3d011682016040523d82523d6000602084013e6104cf565b606091505b5050905080610513576040517f08c379a000000000000000000000000000000000000000000000000000000000815260040161050a906112da565b60405180910390fd5b61051b610585565b73ffffffffffffffffffffffffffffffffffffffff167fc0819c13be868895eb93e40eaceb96de976442fa1d404e5c55f14bb65a8c489a836040516105609190610bd2565b60405180910390a25050565b60c881565b610579610902565b6105836000610989565b565b60008060009054906101000a900473ffffffffffffffffffffffffffffffffffffffff16905090565b6105b6610a4d565b600034116105f9576040517f08c379a00000000000000000000000000000000000000000000000000000000081526004016105f09061136c565b60405180910390fd5b600073ffffffffffffffffffffffffffffffffffffffff168373ffffffffffffffffffffffffffffffffffffffff1603610668576040517f08c379a000000000000000000000000000000000000000000000000000000000815260040161065f906113d8565b60405180910390fd5b600061271060c83461067a9190611427565b6106849190611498565b90506000813461069491906114c9565b905060008573ffffffffffffffffffffffffffffffffffffffff16826040516106bc90611279565b60006040518083038185875af1925050503d80600081146106f9576040519150601f19603f3d011682016040523d82523d6000602084013e6106fe565b606091505b5050905080610742576040517f08c379a000000000000000000000000000000000000000000000000000000000815260040161073990611549565b60405180910390fd5b8573ffffffffffffffffffffffffffffffffffffffff163373ffffffffffffffffffffffffffffffffffffffff167f981a5763d79e2ce003fc0775cd913962b6959559e89eac108dd58de1fc6d86ab348888426040516107a59493929190611569565b60405180910390a35050506107b8610a93565b505050565b60025481565b60036020528060005260406000206000915090508060000180546107e690610ecd565b80601f016020809104026020016040519081016040528092919081815260200182805461081290610ecd565b801561085f5780601f106108345761010080835404028352916020019161085f565b820191906000526020600020905b81548152906001019060200180831161084257829003601f168201915b5050505050908060010160009054906101000a900460ff16905082565b610884610902565b600073ffffffffffffffffffffffffffffffffffffffff168173ffffffffffffffffffffffffffffffffffffffff16036108f65760006040517f1e4fbdf70000000000000000000000000000000000000000000000000000000081526004016108ed9190610c2e565b60405180910390fd5b6108ff81610989565b50565b61090a610a9c565b73ffffffffffffffffffffffffffffffffffffffff16610928610585565b73ffffffffffffffffffffffffffffffffffffffff16146109875761094b610a9c565b6040517f118cdaa700000000000000000000000000000000000000000000000000000000815260040161097e9190610c2e565b60405180910390fd5b565b60008060009054906101000a900473ffffffffffffffffffffffffffffffffffffffff169050816000806101000a81548173ffffffffffffffffffffffffffffffffffffffff021916908373ffffffffffffffffffffffffffffffffffffffff1602179055508173ffffffffffffffffffffffffffffffffffffffff168173ffffffffffffffffffffffffffffffffffffffff167f8be0079c531659141344cd1fd0a4f28419497f9722a3daafe3b4186f6b6457e060405160405180910390a35050565b600260015403610a89576040517f3ee5aeb500000000000000000000000000000000000000000000000000000000815260040160405180910390fd5b6002600181905550565b60018081905550565b600033905090565b600080fd5b600080fd5b600080fd5b600080fd5b600080fd5b60008083601f840112610ad357610ad2610aae565b5b8235905067ffffffffffffffff811115610af057610aef610ab3565b5b602083019150836001820283011115610b0c57610b0b610ab8565b5b9250929050565b60008060208385031215610b2a57610b29610aa4565b5b600083013567ffffffffffffffff811115610b4857610b47610aa9565b5b610b5485828601610abd565b92509250509250929050565b6000819050919050565b610b7381610b60565b8114610b7e57600080fd5b50565b600081359050610b9081610b6a565b92915050565b600060208284031215610bac57610bab610aa4565b5b6000610bba84828501610b81565b91505092915050565b610bcc81610b60565b82525050565b6000602082019050610be76000830184610bc3565b92915050565b600073ffffffffffffffffffffffffffffffffffffffff82169050919050565b6000610c1882610bed565b9050919050565b610c2881610c0d565b82525050565b6000602082019050610c436000830184610c1f565b92915050565b610c5281610c0d565b8114610c5d57600080fd5b50565b600081359050610c6f81610c49565b92915050565b600080600060408486031215610c8e57610c8d610aa4565b5b6000610c9c86828701610c60565b935050602084013567ffffffffffffffff811115610cbd57610cbc610aa9565b5b610cc986828701610abd565b92509250509250925092565b600060208284031215610ceb57610cea610aa4565b5b6000610cf984828501610c60565b91505092915050565b600081519050919050565b600082825260208201905092915050565b60005b83811015610d3c578082015181840152602081019050610d21565b60008484015250505050565b6000601f19601f8301169050919050565b6000610d6482610d02565b610d6e8185610d0d565b9350610d7e818560208601610d1e565b610d8781610d48565b840191505092915050565b60008115159050919050565b610da781610d92565b82525050565b60006040820190508181036000830152610dc78185610d59565b9050610dd66020830184610d9e565b9392505050565b7f496e73756666696369656e742066656520666f722070726f66696c652075706460008201527f6174650000000000000000000000000000000000000000000000000000000000602082015250565b6000610e39602383610d0d565b9150610e4482610ddd565b604082019050919050565b60006020820190508181036000830152610e6881610e2c565b9050919050565b7f4e487b7100000000000000000000000000000000000000000000000000000000600052604160045260246000fd5b7f4e487b7100000000000000000000000000000000000000000000000000000000600052602260045260246000fd5b60006002820490506001821680610ee557607f821691505b602082108103610ef857610ef7610e9e565b5b50919050565b60008190508160005260206000209050919050565b60006020601f8301049050919050565b600082821b905092915050565b600060088302610f607fffffffffffffffffffffffffffffffffffffffffffffffffffffffffffffffff82610f23565b610f6a8683610f23565b95508019841693508086168417925050509392505050565b6000819050919050565b6000610fa7610fa2610f9d84610b60565b610f82565b610b60565b9050919050565b6000819050919050565b610fc183610f8c565b610fd5610fcd82610fae565b848454610f30565b825550505050565b600090565b610fea610fdd565b610ff5818484610fb8565b505050565b5b818110156110195761100e600082610fe2565b600181019050610ffb565b5050565b601f82111561105e5761102f81610efe565b61103884610f13565b81016020851015611047578190505b61105b61105385610f13565b830182610ffa565b50505b505050565b600082821c905092915050565b600061108160001984600802611063565b1980831691505092915050565b600061109a8383611070565b9150826002028217905092915050565b6110b382610d02565b67ffffffffffffffff8111156110cc576110cb610e6f565b5b6110d68254610ecd565b6110e182828561101d565b600060209050601f8311600181146111145760008415611102578287015190505b61110c858261108e565b865550611174565b601f19841661112286610efe565b60005b8281101561114a57848901518255600182019150602085019450602081019050611125565b868310156111675784890151611163601f891682611070565b8355505b6001600288020188555050505b505050505050565b82818337600083830152505050565b60006111978385610d0d565b93506111a483858461117c565b6111ad83610d48565b840190509392505050565b600060208201905081810360008301526111d381848661118b565b90509392505050565b7f4e6f206665657320746f20776974686472617700000000000000000000000000600082015250565b6000611212601383610d0d565b915061121d826111dc565b602082019050919050565b6000602082019050818103600083015261124181611205565b9050919050565b600081905092915050565b50565b6000611263600083611248565b915061126e82611253565b600082019050919050565b600061128482611256565b9150819050919050565b7f5769746864726177206661696c65640000000000000000000000000000000000600082015250565b60006112c4600f83610d0d565b91506112cf8261128e565b602082019050919050565b600060208201905081810360008301526112f3816112b7565b9050919050565b7f54697020616d6f756e74206d7573742062652067726561746572207468616e2060008201527f3000000000000000000000000000000000000000000000000000000000000000602082015250565b6000611356602183610d0d565b9150611361826112fa565b604082019050919050565b6000602082019050818103600083015261138581611349565b9050919050565b7f43616e6e6f742074697020746865207a65726f20616464726573730000000000600082015250565b60006113c2601b83610d0d565b91506113cd8261138c565b602082019050919050565b600060208201905081810360008301526113f1816113b5565b9050919050565b7f4e487b7100000000000000000000000000000000000000000000000000000000600052601160045260246000fd5b600061143282610b60565b915061143d83610b60565b925082820261144b81610b60565b91508282048414831517611462576114616113f8565b5b5092915050565b7f4e487b7100000000000000000000000000000000000000000000000000000000600052601260045260246000fd5b60006114a382610b60565b91506114ae83610b60565b9250826114be576114bd611469565b5b828204905092915050565b60006114d482610b60565b91506114df83610b60565b92508282039050818111156114f7576114f66113f8565b5b92915050565b7f4661696c656420746f2073656e642074697020746f20726563697069656e7400600082015250565b6000611533601f83610d0d565b915061153e826114fd565b602082019050919050565b6000602082019050818103600083015261156281611526565b9050919050565b600060608201905061157e6000830187610bc3565b818103602083015261159181858761118b565b90506115a06040830184610bc3565b9594505050505056fea26469706673582212205cd92551e2da1787714518651a0dba6f6fa8512f6cb3c37cdf5ba9e9727119e864736f6c63430008180033",
  "linkReferences": {},
  "deployedLinkReferences": {}
}